:020000040000fa
:080000000002040000000000f2
:020000040000fa
:04000800d40300001d
:020000040000fa
:04000c00d403000019
:020000040000fa
:04001000d403000015
:020000040000fa
:04001400d403000011
:020000040000fa
:04001800d40300000d
:020000040000fa
:04001c00d403000009
:020000040000fa
:04002000d403000005
:020000040000fa
:04002400d403000001
:020000040000fa
:04002800d4030000fd
:020000040000fa
:04002c00d4030000f9
:020000040000fa
:04003000d4030000f5
:020000040000fa
:04003400d4030000f1
:020000040000fa
:04003800d4030000ed
:020000040000fa
:04003c00d4030000e9
:020000040000fa
:04004000d4030000e5
:020000040000fa
:04004400d4030000e1
:020000040000fa
:04004800d4030000dd
:020000040000fa
:04004c00d4030000d9
:020000040000fa
:04005000d4030000d5
:020000040000fa
:0400540002030000a3
:020000040000fa
:04005800d4030000cd
:020000040000fa
:04005c00d4030000c9
:020000040000fa
:04006000d4030000c5
:020000040000fa
:04006400d4030000c1
:020000040000fa
:04006800d4030000bd
:020000040000fa
:04006c00d4030000b9
:020000040000fa
:04007000d4030000b5
:020000040000fa
:04007400d4030000b1
:020000040000fa
:04007800d4030000ad
:020000040000fa
:04007c00d4030000a9
:020000040000fa
:04008000d4030000a5
:020000040000fa
:04008400d4030000a1
:020000040000fa
:04008800d40300009d
:020000040000fa
:04008c00d403000099
:020000040000fa
:04009000d403000095
:020000040000fa
:04009400d403000091
:020000040000fa
:04009800d40300008d
:020000040000fa
:04009c00d403000089
:020000040000fa
:0400a000d403000085
:020000040000fa
:0400a400d403000081
:020000040000fa
:0400a800d40300007d
:020000040000fa
:0400ac00d403000079
:020000040000fa
:0400b000d403000075
:020000040000fa
:0400b400d403000071
:020000040000fa
:0400b800d40300006d
:020000040000fa
:0400bc00d403000069
:020000040000fa
:0400c000d403000065
:020000040000fa
:0400c400d403000061
:020000040000fa
:0400c800d40300005d
:020000040000fa
:0400cc00d403000059
:020000040000fa
:0400d000d403000055
:020000040000fa
:0400d400d403000051
:020000040000fa
:0400d800d40300004d
:020000040000fa
:0400dc00d403000049
:020000040000fa
:0400e000d403000045
:020000040000fa
:0400e400d403000041
:020000040000fa
:0400e800d40300003d
:020000040000fa
:0400ec00d403000039
:020000040000fa
:0400f000d403000035
:020000040000fa
:0400f400d403000031
:020000040000fa
:0400f800d40300002d
:020000040000fa
:0400fc00d403000029
:020000040000fa
:04010000d403000024
:020000040000fa
:04010400d403000020
:020000040000fa
:04010800d40300001c
:020000040000fa
:04010c00fa020000f3
:020000040000fa
:04011000d403000014
:020000040000fa
:04011400d403000010
:020000040000fa
:04011800d40300000c
:020000040000fa
:04011c00d403000008
:020000040000fa
:04012000d403000004
:020000040000fa
:04012400d403000000
:020000040000fa
:04012800d4030000fc
:020000040000fa
:04012c00d4030000f8
:020000040000fa
:04013000d4030000f4
:020000040000fa
:04013400d4030000f0
:020000040000fa
:04013800d4030000ec
:020000040000fa
:04013c00d4030000e8
:020000040000fa
:04014000d4030000e4
:020000040000fa
:04014400d4030000e0
:020000040000fa
:04014800d4030000dc
:020000040000fa
:04014c00d4030000d8
:020000040000fa
:04015000d4030000d4
:020000040000fa
:04015400d4030000d0
:020000040000fa
:04015800d4030000cc
:020000040000fa
:04015c00d4030000c8
:020000040000fa
:04016000d4030000c4
:020000040000fa
:04016400d4030000c0
:020000040000fa
:04016800d4030000bc
:020000040000fa
:04016c00d4030000b8
:020000040000fa
:04017000d4030000b4
:020000040000fa
:04017400d4030000b0
:020000040000fa
:04017800d4030000ac
:020000040000fa
:04017c00d4030000a8
:020000040000fa
:04018000d4030000a4
:020000040000fa
:04018400d4030000a0
:020000040000fa
:04018800d40300009c
:020000040000fa
:04018c00d403000098
:020000040000fa
:04019000d403000094
:020000040000fa
:04019400d403000090
:020000040000fa
:04019800d40300008c
:020000040000fa
:04019c00d403000088
:020000040000fa
:0401a000d403000084
:020000040000fa
:0401a400d403000080
:020000040000fa
:0401a800d40300007c
:020000040000fa
:0401ac00d403000078
:020000040000fa
:0401b000d403000074
:020000040000fa
:0401b400d403000070
:020000040000fa
:0401b800d40300006c
:020000040000fa
:0401bc00d403000068
:020000040000fa
:0401c000d403000064
:020000040000fa
:0401c400d403000060
:020000040000fa
:0401c800d40300005c
:020000040000fa
:0401cc00d403000058
:020000040000fa
:0401d000d403000054
:020000040000fa
:0401d400d403000050
:020000040000fa
:0401d800d40300004c
:020000040000fa
:0401dc00d403000048
:020000040000fa
:0401e000d403000044
:020000040000fa
:0401e400d403000040
:020000040000fa
:0401e800d40300003c
:020000040000fa
:0401ec00d403000038
:020000040000fa
:0401f000d403000034
:020000040000fa
:0401f400d403000030
:020000040000fa
:0401f800d40300002c
:020000040000fa
:0401fc00d403000028
:020000040000fa
:04020000d403000023
:020000040000fa
:04020400d40300001f
:020000040000fa
:04020800d40300001b
:020000040000fa
:04020c00d403000017
:020000040000fa
:04021000d403000013
:020000040000fa
:04021400d40300000f
:020000040000fa
:04021800d40300000b
:020000040000fa
:04021c00d403000007
:020000040000fa
:04022000d403000003
:020000040000fa
:04022400d4030000ff
:020000040000fa
:04022800d4030000fb
:020000040000fa
:04022c00d4030000f7
:020000040000fa
:04023000d4030000f3
:020000040000fa
:04023400d4030000ef
:020000040000fa
:04023800d4030000eb
:020000040000fa
:04023c00d4030000e7
:020000040000fa
:04024000d4030000e3
:020000040000fa
:04024400d4030000df
:020000040000fa
:04024800d4030000db
:020000040000fa
:04024c00d4030000d7
:020000040000fa
:04025000d4030000d3
:020000040000fa
:04025400d4030000cf
:020000040000fa
:04025800d4030000cb
:020000040000fa
:04025c00d4030000c7
:020000040000fa
:04026000d4030000c3
:020000040000fa
:04026400d4030000bf
:020000040000fa
:04026800d4030000bb
:020000040000fa
:04026c00d4030000b7
:020000040000fa
:04027000d4030000b3
:020000040000fa
:04027400d4030000af
:020000040000fa
:04027800d4030000ab
:020000040000fa
:04027c00d4030000a7
:020000040000fa
:04028000d4030000a3
:020000040000fa
:04028400d40300009f
:020000040000fa
:04028800d40300009b
:020000040000fa
:04028c00d403000097
:020000040000fa
:04029000d403000093
:020000040000fa
:04029400d40300008f
:020000040000fa
:04029800d40300008b
:020000040000fa
:04029c00d403000087
:020000040000fa
:0402a000d403000083
:020000040000fa
:0402a400d40300007f
:020000040000fa
:0402a800d40300007b
:020000040000fa
:0402ac00d403000077
:020000040000fa
:0402b000d403000073
:020000040000fa
:0402b400d40300006f
:020000040000fa
:0402b800d40300006b
:020000040000fa
:0402bc00d403000067
:020000040000fa
:0402c000d403000063
:020000040000fa
:0402c400d40300005f
:020000040000fa
:0402c800d40300005b
:020000040000fa
:0402cc00d403000057
:020000040000fa
:0402d000d403000053
:020000040000fa
:0402d400d40300004f
:020000040000fa
:0402d800d40300004b
:020000040000fa
:0402dc00d403000047
:020000040000fa
:0402e000d403000043
:020000040000fa
:0402e400d40300003f
:020000040000fa
:0402e800d40300003b
:020000040000fa
:0402ec00d403000037
:020000040000fa
:0402f000d403000033
:020000040000fa
:0402f400d40300002f
:020000040000fa
:0402f800d40300002b
:020000040000fa
:10040000af0121000eff21000e0188000000000056
:10041000000020000000e000020032000001200087
:100420002002880014000700e10007000000e0003f
:1004300003003a004076200001002000020037004f
:100440000000200001002000810f70000100320038
:100450000f000700000020000000e0000200320052
:1004600000000200000000000a0702000000000077
:100470000040da000000fe00200020000000e00044
:1004800002003200100020009001880000000600e9
:10049000a1028800800478000000eb001f003700f4
:1004a000e284440054a0b4009905ba00e2844400f8
:1004b00054a0b4009906ba00e284440054a0b400e9
:1004c0000006eb00476fde00fd07b200ae018800ba
:1004d000636ce10003003a000ad801000000eb0061
:1004e0000e003700606ce10008003a00004deb00a0
:1004f0000a05e800020039003420ec000af0a000f0
:100500008b05e900f9ff3e00040037006168e10057
:10051000010032000086eb000b00070019c7ba008b
:100520000e04e0001905ba0003003a000a00e000da
:10053000dbff3a0000000600fe07b200ae028800b2
:100540008a047800f5ff37000cd0a300e20f4d00bd
:100550001c003b0089027800354dba000a05e8000e
:10056000020039003420ec000af0a0008b05e900fd
:100570000f003200254dba000a05e80002003900dc
:100580003420ec000af0a0008b05e90008003200de
:100590000c00e0000600320015cdba000a05e800a4
:1005a000020039003420ec000af0a0008b05e900bd
:1005b0008984e80054a0b4000b00e000e2ff3a0098
:1005c000000006009902ba00055d78008b05e9007d
:1005d000f7ff3200c82ade00055d78008b05e900d0
:1005e000f3ff32000c00e000f1ff320019ddba0029
:1005f000eeff37000000fa000728a9000080fa008b
:1006000000400600809fbe00829fbe00841f7800cd
:100610000400fa000168a900101180006200600067
:100620000000e000010032002222a9000ed0bf002d
:100630008081fb003111800001417800f100210030
:1006400081804100824878000040e8000ef0b70049
:100650000fd0bf000080fb00e30f50000700320006
:10066000e40f500021003200e20f500043003a0036
:1006700001eca9000e70ef00460037000ed0bf005d
:10068000e34f50004000360010d0bf000080fb0058
:10069000c800dd0011d0bf000080fb00008f70009b
:1006a0001e0078008000eb00823e20008289b900a5
:1006b000e002b9008401780003014100833e20007c
:1006c0000300b8000101410082007800008088002a
:1006d0001180880012d0bf0004f0b70010c0b30032
:1006e00017f0b7000e70ef002a0037000ed0bf00e1
:1006f000e54f50002600360010d0bf000080fb0000
:10070000c800dd0011d0bf000080fb0001007000b8
:10071000100798001e0090008000eb00823e200031
:100720008289b900e002b900840178000301410028
:10073000833e20000300b8000101410082007800e0
:10074000008088001180880012d0bf0004f0b7003c
:1007500013d0bf000080fb00c800dd0014d0bf0034
:100760000080fb00010070006080880010c0b300b2
:1007700018f0b7000e70ef00060037000e70ef00a3
:1007800000000000030037000000000001003700f7
:10079000000000000080fa004f0278004f01be0008
:1007a0004f00be00004006000040da000000fe00de
:1007b000000005006022b800060220000000d00002
:1007c0008180d2000482d2008582d2000000a00085
:1007d0000202520083825a000300310002024200ea
:1007e00083824a000000a1000603e900f3ff3a00fb
:0407f00000000600ff
:020000040000fa
:1007f4000000fa0090022000303a8800213a80007c
:10080400f0f32f0000806000203a8800213a800035
:1008140000fe2f0000806000203a880012002000b3
:1008240080072000a109200033742000804978004b
:100834008149780082497800103a800000017800ec
:100844000200a00060042000710520002374200031
:1008540080497800814978008249780000000000ce
:10086400113a800000002700808060000000210011
:10087400808f5000faff3a0000000000113a800017
:1008840000022000008060000000e000fbff320056
:1008940050c7a80051e7a800813a8000f08f2f00cc
:1008a4000080600000a0a000803a880000000000e2
:1008b400813a800000002400008060000000e00015
:1008c400fbff320051a7a8000080fa0000000600d8
:1008d4000000fa0023eca90023cca90043eca900f2
:1008e40043cca900008ea900006ea90011aea90096
:1008f40011cea9000080fa00000006000000fa00f2
:1009040001eca9001160800080ff2f0000806000ce
:1009140010608800a04920002060880020608000ca
:100924004061880020608000406288002060800070
:100934008000eb00220320008289b900e002b900a4
:100944008401780003014100230320000300b80060
:1009540001014100820078004206200003002000cb
:1009640093ff070000007800306188002060800059
:100974008000eb00220320008289b900e002b90064
:100984008401780003014100230320000300b80020
:10099400010141008200780042062000030020008b
:1009a40083ff070000007800306288002a2cef00e3
:1009b4004a2cef002c2cef002c2cef00206180003f
:1009c4003000b30020618800206280003000b30052
:1009d40020628800232ca900230ca900432ca90021
:1009e400430ca90023eca80023cca80043eca800e6
:1009f40043cca80023aca900238ca90043aca900d4
:100a0400438ca90011618000f03f2f00008060003a
:100a14001061880011628000f03f2f0000806000a8
:100a240010628800212ca900412ca900210ca800e7
:100a3400410ca800206080008000eb00220320000d
:100a44008289b900e002b900840178000301410001
:100a5400230320000300b800010141008200780054
:100a6400420620000300200051ff07000000780028
:100a74005060880001eca8000080fa000000060025
:100a84000a00fa002007980031079800024f9800e6
:100a94002e019000be01900000102500717020000e
:100aa40043ff070000007800000fe9001e007800f3
:100ab4006101b8000e4890000080fb008000eb004c
:100ac400809ab900828bb900860278000502420040
:100ad4000010b800010242008400780042062000a1
:100ae4000300200032ff07001007980001eca90062
:100af400206180003000b300206188002062800003
:100b04003000b3002062880023eca80023cca800a6
:100b140043eca80043cca800232ca900230ca90073
:100b2400432ca900430ca90011628000f03f2f0060
:100b3400008060001062880011618000f03f2f0087
:100b44000080600010618800210ca800410ca800fe
:100b5400212ca900412ca9009e0078002160880066
:100b64001e037800466188009e0078004162880078
:100b74001e039000566088009e009000316188003a
:100b84001e0390003662880001eca8000080fa0081
:100b9400000006000e00fa00300798004107980094
:100ba400224f98006307980001eca9003e019000d1
:100bb400ce0190000010250071702000fcfe07009b
:100bc400000078000000e900100798001e00900063
:100bd4006101b8002e4890000080fb008000eb000b
:100be400809ab900828bb90086027800050242001f
:100bf4000010b80001024200840078004206200080
:100c040003002000eafe0700200798009e009000e1
:100c1400216088001e029000446188002e03900029
:100c240036618800ae00900051608800232ca90032
:100c3400230ca90023eca80023cca8001161800098
:100c4400f03f2f0000806000106188006e0090006b
:100c54008000eb00620720008289b900e002b9003d
:100c64008401780003014100630720000300b800f9
:100c74000101410082007800823e20000300200030
:100c8400cbfe0700000f7800b00320009e00780020
:100c9400808f500002003600b0032000000f78005f
:100ca40001618000f0f32f00008060000061880083
:100cb400200ca9001e037800566188009e0078006d
:100cc400616188004a2cef004c2cef00210ca80035
:100cd400212ca9001162800000c0200001007000d6
:100ce4001062880043eca80043cca8001162800085
:100cf400000c20000100700010628800432ca80042
:100d0400430ca800206280003000b30020628800f9
:100d140001eca8000080fa00000006000200fa00be
:100d2400004f7800152ea80000000000111180006b
:100d340000202000008060000000e000fbff3a007b
:100d4400a00a200020118800d0ab29000100200057
:100d54004e000700152ea9000080fa0000000600ce
:100d64000000fa0060a7a90011eea800110ea90066
:100d7400112ea900152ea90042c7a900f0c2b30084
:100d8400c4e6b700c133800000fc2f00008060007f
:100d94000000a000c033880042c7a8002002a900b8
:100da4000111800090ff2f00008060000011880076
:100db4002062a90020a2a90023a2a90023e2a9007d
:100dc40000102000401188000188a9002188a90092
:100dd4000168a9002168a80021428000f0ff2800d2
:100de400808060000000250001007000204288001f
:100df40011118000f0f32f000080600010118800b2
:100e040021e2a8002342a8000080fa0000000600a6
:100e14000200fa0040a7a900003a8000000f780001
:100e24004027ef0072fe0700a9fe0700ccff070071
:100e340001003700000000000060fe0017d0bf0072
:100e4400e14f500006003a004200210012417800b0
:100e5400008080001180800009ff07001770ef00f8
:100e640018d0bf00e14f5000f2ff3a0063808000c9
:100e7400420021001241780000808000118080002f
:0c0e840044ff07001870ef00ebff370080
:020000040000fa
:100e9000f03fb1000180b10006003500ee0309000b
:100ea00000000000403fb1000180b100fbff3d00a9
:100eb0001000b000203fb0000200350000800900a3
:080ec000000000000000060024
:020000040000fa
:100ec800001000000c00000082000000a086010055
:100ed80000320000a0860100003200001610000059
:100ee80004000000800000000c1000000a00000050
:080ef800800000000000000072
:020000040000fa
:04af0000ffffff0050
:020000040000fa
:04af2000ff1f00000f
:020000040000fa
:04af3000f9ffff0026
:020000040000fa
:04af38005bffff00bc
:020000040000fa
:04af40009cffff0073
:020000040000fa
:04af5000dfffff0020
:020000040000fa
:04af5800feffff00f9
:020000040000fa
:04af6000ffffff00f0
:00000001FF
