:020000040000fa
:080000000002040000000000f2
:020000040000fa
:0400080002030000ef
:020000040000fa
:04000c0002030000eb
:020000040000fa
:0400100002030000e7
:020000040000fa
:0400140002030000e3
:020000040000fa
:0400180002030000df
:020000040000fa
:04001c0002030000db
:020000040000fa
:0400200002030000d7
:020000040000fa
:0400240002030000d3
:020000040000fa
:0400280002030000cf
:020000040000fa
:04002c0002030000cb
:020000040000fa
:0400300002030000c7
:020000040000fa
:0400340002030000c3
:020000040000fa
:0400380002030000bf
:020000040000fa
:04003c0002030000bb
:020000040000fa
:0400400002030000b7
:020000040000fa
:0400440002030000b3
:020000040000fa
:0400480002030000af
:020000040000fa
:04004c0002030000ab
:020000040000fa
:0400500002030000a7
:020000040000fa
:0400540002030000a3
:020000040000fa
:04005800020300009f
:020000040000fa
:04005c00020300009b
:020000040000fa
:040060000203000097
:020000040000fa
:040064000203000093
:020000040000fa
:04006800020300008f
:020000040000fa
:04006c00020300008b
:020000040000fa
:040070000203000087
:020000040000fa
:040074000203000083
:020000040000fa
:04007800020300007f
:020000040000fa
:04007c00020300007b
:020000040000fa
:040080000203000077
:020000040000fa
:040084000203000073
:020000040000fa
:04008800020300006f
:020000040000fa
:04008c00020300006b
:020000040000fa
:040090000203000067
:020000040000fa
:040094000203000063
:020000040000fa
:04009800020300005f
:020000040000fa
:04009c00020300005b
:020000040000fa
:0400a0000203000057
:020000040000fa
:0400a4000203000053
:020000040000fa
:0400a800020300004f
:020000040000fa
:0400ac00020300004b
:020000040000fa
:0400b0000203000047
:020000040000fa
:0400b4000203000043
:020000040000fa
:0400b800020300003f
:020000040000fa
:0400bc00020300003b
:020000040000fa
:0400c0000203000037
:020000040000fa
:0400c4000203000033
:020000040000fa
:0400c800020300002f
:020000040000fa
:0400cc00020300002b
:020000040000fa
:0400d0000203000027
:020000040000fa
:0400d4000203000023
:020000040000fa
:0400d800020300001f
:020000040000fa
:0400dc00020300001b
:020000040000fa
:0400e0000203000017
:020000040000fa
:0400e4000203000013
:020000040000fa
:0400e800020300000f
:020000040000fa
:0400ec00020300000b
:020000040000fa
:0400f0000203000007
:020000040000fa
:0400f4000203000003
:020000040000fa
:0400f80002030000ff
:020000040000fa
:0400fc0002030000fb
:020000040000fa
:0401000002030000f6
:020000040000fa
:0401040002030000f2
:020000040000fa
:0401080002030000ee
:020000040000fa
:04010c00fa020000f3
:020000040000fa
:0401100002030000e6
:020000040000fa
:0401140002030000e2
:020000040000fa
:0401180002030000de
:020000040000fa
:04011c0002030000da
:020000040000fa
:0401200002030000d6
:020000040000fa
:0401240002030000d2
:020000040000fa
:0401280002030000ce
:020000040000fa
:04012c0002030000ca
:020000040000fa
:0401300002030000c6
:020000040000fa
:0401340002030000c2
:020000040000fa
:0401380002030000be
:020000040000fa
:04013c0002030000ba
:020000040000fa
:0401400002030000b6
:020000040000fa
:0401440002030000b2
:020000040000fa
:0401480002030000ae
:020000040000fa
:04014c0002030000aa
:020000040000fa
:0401500002030000a6
:020000040000fa
:0401540002030000a2
:020000040000fa
:04015800020300009e
:020000040000fa
:04015c00020300009a
:020000040000fa
:040160000203000096
:020000040000fa
:040164000203000092
:020000040000fa
:04016800020300008e
:020000040000fa
:04016c00020300008a
:020000040000fa
:040170000203000086
:020000040000fa
:040174000203000082
:020000040000fa
:04017800020300007e
:020000040000fa
:04017c00020300007a
:020000040000fa
:040180000203000076
:020000040000fa
:040184000203000072
:020000040000fa
:04018800020300006e
:020000040000fa
:04018c00020300006a
:020000040000fa
:040190000203000066
:020000040000fa
:040194000203000062
:020000040000fa
:04019800020300005e
:020000040000fa
:04019c00020300005a
:020000040000fa
:0401a0000203000056
:020000040000fa
:0401a4000203000052
:020000040000fa
:0401a800020300004e
:020000040000fa
:0401ac00020300004a
:020000040000fa
:0401b0000203000046
:020000040000fa
:0401b4000203000042
:020000040000fa
:0401b800020300003e
:020000040000fa
:0401bc00020300003a
:020000040000fa
:0401c0000203000036
:020000040000fa
:0401c4000203000032
:020000040000fa
:0401c800020300002e
:020000040000fa
:0401cc00020300002a
:020000040000fa
:0401d0000203000026
:020000040000fa
:0401d4000203000022
:020000040000fa
:0401d800020300001e
:020000040000fa
:0401dc00020300001a
:020000040000fa
:0401e0000203000016
:020000040000fa
:0401e4000203000012
:020000040000fa
:0401e800020300000e
:020000040000fa
:0401ec00020300000a
:020000040000fa
:0401f0000203000006
:020000040000fa
:0401f4000203000002
:020000040000fa
:0401f80002030000fe
:020000040000fa
:0401fc0002030000fa
:020000040000fa
:0402000002030000f5
:020000040000fa
:0402040002030000f1
:020000040000fa
:0402080002030000ed
:020000040000fa
:04020c0002030000e9
:020000040000fa
:0402100002030000e5
:020000040000fa
:0402140002030000e1
:020000040000fa
:0402180002030000dd
:020000040000fa
:04021c0002030000d9
:020000040000fa
:0402200002030000d5
:020000040000fa
:0402240002030000d1
:020000040000fa
:0402280002030000cd
:020000040000fa
:04022c0002030000c9
:020000040000fa
:0402300002030000c5
:020000040000fa
:0402340002030000c1
:020000040000fa
:0402380002030000bd
:020000040000fa
:04023c0002030000b9
:020000040000fa
:0402400002030000b5
:020000040000fa
:0402440002030000b1
:020000040000fa
:0402480002030000ad
:020000040000fa
:04024c0002030000a9
:020000040000fa
:0402500002030000a5
:020000040000fa
:0402540002030000a1
:020000040000fa
:04025800020300009d
:020000040000fa
:04025c000203000099
:020000040000fa
:040260000203000095
:020000040000fa
:040264000203000091
:020000040000fa
:04026800020300008d
:020000040000fa
:04026c000203000089
:020000040000fa
:040270000203000085
:020000040000fa
:040274000203000081
:020000040000fa
:04027800020300007d
:020000040000fa
:04027c000203000079
:020000040000fa
:040280000203000075
:020000040000fa
:040284000203000071
:020000040000fa
:04028800020300006d
:020000040000fa
:04028c000203000069
:020000040000fa
:040290000203000065
:020000040000fa
:040294000203000061
:020000040000fa
:04029800020300005d
:020000040000fa
:04029c000203000059
:020000040000fa
:0402a0000203000055
:020000040000fa
:0402a4000203000051
:020000040000fa
:0402a800020300004d
:020000040000fa
:0402ac000203000049
:020000040000fa
:0402b0000203000045
:020000040000fa
:0402b4000203000041
:020000040000fa
:0402b800020300003d
:020000040000fa
:0402bc000203000039
:020000040000fa
:0402c0000203000035
:020000040000fa
:0402c4000203000031
:020000040000fa
:0402c800020300002d
:020000040000fa
:0402cc000203000029
:020000040000fa
:0402d0000203000025
:020000040000fa
:0402d4000203000021
:020000040000fa
:0402d800020300001d
:020000040000fa
:0402dc000203000019
:020000040000fa
:0402e0000203000015
:020000040000fa
:0402e4000203000011
:020000040000fa
:0402e800020300000d
:020000040000fa
:0402ec000203000009
:020000040000fa
:0402f0000203000005
:020000040000fa
:0402f4000203000001
:020000040000fa
:0402f80002030000fd
:020000040000fa
:10040000af0021000eff21000e0188000000000057
:10041000000020000000e000020032000001200087
:100420002002880014000700780007000000e000a8
:1004300003003a00004720000100200002003700be
:100440000000200001002000810f70000100320038
:100450000f000700000020000000e0000200320052
:100460000000020000000000840402000000000000
:100470000040da000000fe00200020000000e00044
:1004800002003200100020009001880000000600e9
:10049000a1028800800478000000eb001f003700f4
:1004a000e284440054a0b4009905ba00e2844400f8
:1004b00054a0b4009906ba00e284440054a0b400e9
:1004c0000006eb00476fde00fd07b200ae018800ba
:1004d000636ce10003003a000ad801000000eb0061
:1004e0000e003700606ce10008003a00004deb00a0
:1004f0000a05e800020039003420ec000af0a000f0
:100500008b05e900f9ff3e00040037006168e10057
:10051000010032000086eb000b00070019c7ba008b
:100520000e04e0001905ba0003003a000a00e000da
:10053000dbff3a0000000600fe07b200ae028800b2
:100540008a047800f5ff37000cd0a300e20f4d00bd
:100550001c003b0089027800354dba000a05e8000e
:10056000020039003420ec000af0a0008b05e900fd
:100570000f003200254dba000a05e80002003900dc
:100580003420ec000af0a0008b05e90008003200de
:100590000c00e0000600320015cdba000a05e800a4
:1005a000020039003420ec000af0a0008b05e900bd
:1005b0008984e80054a0b4000b00e000e2ff3a0098
:1005c000000006009902ba00055d78008b05e9007d
:1005d000f7ff3200c82ade00055d78008b05e900d0
:1005e000f3ff32000c00e000f1ff320019ddba0029
:1005f000eeff37000000fa000728a9000080fa008b
:10060000004006000040da000000fe000000050087
:100610006022b800060220000000d0008180d200d5
:100620000482d2008582d2000000a00002025200a3
:1006300083825a00030031000202420083824a0092
:100640000000a1000603e900f3ff3a0000000600e5
:020000040000fa
:100650000000fa0090022000303a8800213a800021
:10066000f0f32f0000806000203a8800213a8000db
:1006700000fe2f0000806000203a88001200200059
:1006800080072000a10920003374200080497800f1
:100690008149780082497800103a80000001780092
:1006a0000200a000600420007105200023742000d7
:1006b0008049780081497800824978000000000074
:1006c000113a8000000027008080600000002100b7
:1006d000808f5000faff3a0000000000113a8000bd
:1006e00000022000008060000000e000fbff3200fc
:1006f00050c7a80051e7a800813a8000f08f2f0072
:100700000080600000a0a000803a88000000000087
:10071000813a800000002400008060000000e000ba
:10072000fbff320051a7a8000080fa00000006007d
:100730000000fa0023eca90023cca90043eca90097
:1007400043cca900008ea900006ea90011aea9003b
:1007500011cea9000080fa00000006000000fa0097
:1007600001eca9001160800080ff2f000080600074
:1007700010608800a0492000206088002060800070
:100780004061880020608000406288002060800016
:100790008000eb00220320008289b900e002b9004a
:1007a0008401780003014100230320000300b80006
:1007b0000101410082007800420620000300200071
:1007c00093ff0700000078003061880020608000ff
:1007d0008000eb00220320008289b900e002b9000a
:1007e0008401780003014100230320000300b800c6
:1007f0000101410082007800420620000300200031
:1008000083ff070000007800306288002a2cef0088
:100810004a2cef002c2cef002c2cef0020618000e4
:100820003000b30020618800206280003000b300f7
:1008300020628800232ca900230ca900432ca900c6
:10084000430ca90023eca80023cca80043eca8008b
:1008500043cca80023aca900238ca90043aca90079
:10086000438ca90011618000f03f2f0000806000e0
:100870001061880011628000f03f2f00008060004e
:1008800010628800212ca900412ca900210ca8008d
:10089000410ca800206080008000eb0022032000b3
:1008a0008289b900e002b9008401780003014100a7
:1008b000230320000300b8000101410082007800fa
:1008c000420620000300200051ff070000007800ce
:1008d0005060880001eca8000080fa0000000600cb
:020000040000fa
:1008e000001000000800000082000000a086320016
:1008f00000a0860032000000081000000200000086
:0809000080000000000000006f
:020000040000fa
:080908000000fa00ffff3700b8
:020000040000fa
:04af0000ffffff0050
:020000040000fa
:04af2000ff1f00000f
:020000040000fa
:04af3000f9ffff0026
:020000040000fa
:04af38007fffff0098
:020000040000fa
:04af400083ffff008c
:020000040000fa
:04af5000dfffff0020
:020000040000fa
:04af5800feffff00f9
:020000040000fa
:04af6000ffffff00f0
:00000001FF
