:020000040000fa
:080000000002040000000000f2
:020000040000fa
:04000800a408000048
:020000040000fa
:04000c00a408000044
:020000040000fa
:04001000a408000040
:020000040000fa
:04001400a40800003c
:020000040000fa
:04001800a408000038
:020000040000fa
:04001c00a408000034
:020000040000fa
:04002000a408000030
:020000040000fa
:04002400a40800002c
:020000040000fa
:04002800a408000028
:020000040000fa
:04002c00a408000024
:020000040000fa
:04003000a408000020
:020000040000fa
:04003400840600003e
:020000040000fa
:04003800a408000018
:020000040000fa
:04003c00a408000014
:020000040000fa
:04004000a408000010
:020000040000fa
:04004400880400002c
:020000040000fa
:040048003605000079
:020000040000fa
:04004c00a408000004
:020000040000fa
:04005000a408000000
:020000040000fa
:04005400ae060000f4
:020000040000fa
:04005800a4080000f8
:020000040000fa
:04005c00a4080000f4
:020000040000fa
:04006000a4080000f0
:020000040000fa
:04006400a4080000ec
:020000040000fa
:04006800a4080000e8
:020000040000fa
:04006c00a4080000e4
:020000040000fa
:04007000a4080000e0
:020000040000fa
:04007400a4080000dc
:020000040000fa
:04007800da030000a7
:020000040000fa
:04007c00a4080000d4
:020000040000fa
:04008000a4080000d0
:020000040000fa
:04008400a4080000cc
:020000040000fa
:04008800a4080000c8
:020000040000fa
:04008c00a4080000c4
:020000040000fa
:04009000a4080000c0
:020000040000fa
:04009400a4080000bc
:020000040000fa
:04009800a4080000b8
:020000040000fa
:04009c00a4080000b4
:020000040000fa
:0400a000a4080000b0
:020000040000fa
:0400a400a4080000ac
:020000040000fa
:0400a800a4080000a8
:020000040000fa
:0400ac00a4080000a4
:020000040000fa
:0400b000a4080000a0
:020000040000fa
:0400b400a40800009c
:020000040000fa
:0400b800a408000098
:020000040000fa
:0400bc00a408000094
:020000040000fa
:0400c000a408000090
:020000040000fa
:0400c400a40800008c
:020000040000fa
:0400c800a408000088
:020000040000fa
:0400cc00a408000084
:020000040000fa
:0400d000a408000080
:020000040000fa
:0400d400a40800007c
:020000040000fa
:0400d800a408000078
:020000040000fa
:0400dc00a408000074
:020000040000fa
:0400e000a408000070
:020000040000fa
:0400e400a40800006c
:020000040000fa
:0400e800a408000068
:020000040000fa
:0400ec00a408000064
:020000040000fa
:0400f000a408000060
:020000040000fa
:0400f400a40800005c
:020000040000fa
:0400f800a408000058
:020000040000fa
:0400fc00a408000054
:020000040000fa
:04010000a40800004f
:020000040000fa
:04010400a40800004b
:020000040000fa
:04010800a408000047
:020000040000fa
:04010c00fa020000f3
:020000040000fa
:04011000a40800003f
:020000040000fa
:04011400a40800003b
:020000040000fa
:04011800a408000037
:020000040000fa
:04011c00a408000033
:020000040000fa
:04012000a40800002f
:020000040000fa
:04012400a40800002b
:020000040000fa
:04012800a408000027
:020000040000fa
:04012c00a408000023
:020000040000fa
:04013000a40800001f
:020000040000fa
:04013400a40800001b
:020000040000fa
:04013800a408000017
:020000040000fa
:04013c00a408000013
:020000040000fa
:04014000a40800000f
:020000040000fa
:04014400a40800000b
:020000040000fa
:04014800a408000007
:020000040000fa
:04014c00a408000003
:020000040000fa
:04015000a4080000ff
:020000040000fa
:04015400a4080000fb
:020000040000fa
:04015800a4080000f7
:020000040000fa
:04015c00a4080000f3
:020000040000fa
:04016000a4080000ef
:020000040000fa
:04016400a4080000eb
:020000040000fa
:04016800a4080000e7
:020000040000fa
:04016c00a4080000e3
:020000040000fa
:04017000a4080000df
:020000040000fa
:04017400a4080000db
:020000040000fa
:04017800a4080000d7
:020000040000fa
:04017c00a4080000d3
:020000040000fa
:04018000a4080000cf
:020000040000fa
:04018400a4080000cb
:020000040000fa
:04018800a4080000c7
:020000040000fa
:04018c00a4080000c3
:020000040000fa
:04019000a4080000bf
:020000040000fa
:04019400a4080000bb
:020000040000fa
:04019800a4080000b7
:020000040000fa
:04019c00a4080000b3
:020000040000fa
:0401a000a4080000af
:020000040000fa
:0401a400a4080000ab
:020000040000fa
:0401a800a4080000a7
:020000040000fa
:0401ac00a4080000a3
:020000040000fa
:0401b000a40800009f
:020000040000fa
:0401b400a40800009b
:020000040000fa
:0401b800a408000097
:020000040000fa
:0401bc00a408000093
:020000040000fa
:0401c000a40800008f
:020000040000fa
:0401c400a40800008b
:020000040000fa
:0401c800a408000087
:020000040000fa
:0401cc00a408000083
:020000040000fa
:0401d000a40800007f
:020000040000fa
:0401d400a40800007b
:020000040000fa
:0401d800a408000077
:020000040000fa
:0401dc00a408000073
:020000040000fa
:0401e000a40800006f
:020000040000fa
:0401e400a40800006b
:020000040000fa
:0401e800a408000067
:020000040000fa
:0401ec00a408000063
:020000040000fa
:0401f000a40800005f
:020000040000fa
:0401f400a40800005b
:020000040000fa
:0401f800a408000057
:020000040000fa
:0401fc00a408000053
:020000040000fa
:04020000a40800004e
:020000040000fa
:04020400a40800004a
:020000040000fa
:04020800a408000046
:020000040000fa
:04020c00a408000042
:020000040000fa
:04021000a40800003e
:020000040000fa
:04021400a40800003a
:020000040000fa
:04021800a408000036
:020000040000fa
:04021c00a408000032
:020000040000fa
:04022000a40800002e
:020000040000fa
:04022400a40800002a
:020000040000fa
:04022800a408000026
:020000040000fa
:04022c00a408000022
:020000040000fa
:04023000a40800001e
:020000040000fa
:04023400a40800001a
:020000040000fa
:04023800a408000016
:020000040000fa
:04023c00a408000012
:020000040000fa
:04024000a40800000e
:020000040000fa
:04024400a40800000a
:020000040000fa
:04024800a408000006
:020000040000fa
:04024c00a408000002
:020000040000fa
:04025000a4080000fe
:020000040000fa
:04025400a4080000fa
:020000040000fa
:04025800a4080000f6
:020000040000fa
:04025c00a4080000f2
:020000040000fa
:04026000a4080000ee
:020000040000fa
:04026400a4080000ea
:020000040000fa
:04026800a4080000e6
:020000040000fa
:04026c00a4080000e2
:020000040000fa
:04027000a4080000de
:020000040000fa
:04027400a4080000da
:020000040000fa
:04027800a4080000d6
:020000040000fa
:04027c00a4080000d2
:020000040000fa
:04028000a4080000ce
:020000040000fa
:04028400a4080000ca
:020000040000fa
:04028800a4080000c6
:020000040000fa
:04028c00a4080000c2
:020000040000fa
:04029000a4080000be
:020000040000fa
:04029400a4080000ba
:020000040000fa
:04029800a4080000b6
:020000040000fa
:04029c00a4080000b2
:020000040000fa
:0402a000a4080000ae
:020000040000fa
:0402a400a4080000aa
:020000040000fa
:0402a800a4080000a6
:020000040000fa
:0402ac00a4080000a2
:020000040000fa
:0402b000a40800009e
:020000040000fa
:0402b400a40800009a
:020000040000fa
:0402b800a408000096
:020000040000fa
:0402bc00a408000092
:020000040000fa
:0402c000a40800008e
:020000040000fa
:0402c400a40800008a
:020000040000fa
:0402c800a408000086
:020000040000fa
:0402cc00a408000082
:020000040000fa
:0402d000a40800007e
:020000040000fa
:0402d400a40800007a
:020000040000fa
:0402d800a408000076
:020000040000fa
:0402dc00a408000072
:020000040000fa
:0402e000a40800006e
:020000040000fa
:0402e400a40800006a
:020000040000fa
:0402e800a408000066
:020000040000fa
:0402ec00a408000062
:020000040000fa
:0402f000a40800005e
:020000040000fa
:0402f400a40800005a
:020000040000fa
:0402f800a408000056
:020000040000fa
:100400006f0421000eff21000e0188000000000093
:10041000000020000000e000020032000001200087
:100420002002880014000700490307000000e000d4
:1004300003003a00a0142100010020000200370050
:100440000000200001002000810f70000100320038
:100450000f000700000020000000e0000200320052
:100460000000020000000000c610020000000000b2
:100470000040da000000fe00002020000000e00044
:1004800002003200002020009001880000000600d9
:10049000a1028800800478000000eb001f003700f4
:1004a000e284440054a0b4009905ba00e2844400f8
:1004b00054a0b4009906ba00e284440054a0b400e9
:1004c0000006eb00476fde00fd07b200ae018800ba
:1004d000636ce10003003a000ad801000000eb0061
:1004e0000e003700606ce10008003a00004deb00a0
:1004f0000a05e800020039003420ec000af0a000f0
:100500008b05e900f9ff3e00040037006168e10057
:10051000010032000086eb000b00070019c7ba008b
:100520000e04e0001905ba0003003a000a00e000da
:10053000dbff3a0000000600fe07b200ae028800b2
:100540008a047800f5ff37000cd0a300e20f4d00bd
:100550001c003b0089027800354dba000a05e8000e
:10056000020039003420ec000af0a0008b05e900fd
:100570000f003200254dba000a05e80002003900dc
:100580003420ec000af0a0008b05e90008003200de
:100590000c00e0000600320015cdba000a05e800a4
:1005a000020039003420ec000af0a0008b05e900bd
:1005b0008984e80054a0b4000b00e000e2ff3a0098
:1005c000000006009902ba00055d78008b05e9007d
:1005d000f7ff3200c82ade00055d78008b05e900d0
:1005e000f3ff32000c00e000f1ff320019ddba0029
:1005f000eeff37003600f800809fbe00829fbe00ed
:10060000849fbe00869fbe000800fa000728a9004c
:1006100042d0bf000080fb000000e0000300320079
:10062000e10f50002d0032005b00370034d0bf00d6
:10063000e14f500057003a003470ef00d080800046
:10064000e1808000c0818800d18188001ed0bf0079
:100650003cf0b700200ca900809a2400000f78001d
:100660001e0078006101b8003cd0bf000080fb0094
:100670008000eb00809ab900828bb9008602780076
:10068000050242000010b800010242008400780018
:100690004206200003002000ae0207001007980069
:1006a000146ea8009e007800216088001e03900050
:1006b000566088009e009000316188001e03900003
:1006c000366288009e0078006880500030608800a4
:1006d00010c0b30042f0b7002f003700200ca90073
:1006e000146ea800c0818000d18180000001be008e
:1006f000001025007170200096020700800078002d
:10070000f0ff2100008040004300dd00200798003a
:100710002e0090006101b8003cd0bf000080fb00bb
:100720008000eb00809ab900828bb90086027800c5
:10073000050242000010b800010242008400780067
:1007400042062000030020008202070030079800c4
:10075000ae009000216088003e0390005660880043
:10076000be009000316188003e0390003662880030
:100770002e0090006800500030608800146ea900c0
:1007800010c0b30035f0b7004270ef000000000069
:1007900001003700000000000080fa004f03be0097
:1007a0004f02be004f01be004f00be003600f900f0
:1007b000004006003600f800809fbe00829fbe0009
:1007c000849fbe00869fbe000200fa000288a90036
:1007d00006d0bf000004e0004500320090708000a9
:1007e0000040780061406000004f78001e407800b3
:1007f000e14f500013003a00146ea80013e1a90065
:100800002108a90011618000f0f32f000080600032
:1008100010618800232ca800230ca800116280001e
:10082000f0f32f000080600010628800432ca800c5
:10083000430ca80010002000f0818800c3030700cb
:100840001e003700146ea90013e1a9002108a900b9
:100850001161800000c0200001007000106188005c
:1008600023eca80023cca80011618000f0f32f0036
:100870000080600010618800232ca800230ca800d1
:100880001162800000c0200001007000106288002a
:1008900043eca80043cca80011628000f0f32f00c5
:1008a0000080600010628800432ca800430ca80060
:1008b00030002000f0818800a4030700104680006b
:1008c0000000d100614060000004a20061406000af
:1008d0000080fb00610060000000400011468000c5
:1008e0000110a100010070001046880001003700cf
:1008f000000000000080fa004f03be004f02be005f
:100900004f01be004f00be003600f9000040060057
:100910003600f800809fbe00829fbe00849fbe000c
:10092000869fbe000400fa0000e8a90040d0bf0086
:100930000004e00045003200008180001181800049
:100940000001be00823eb0000380b0002081800024
:1009500031818000800f5100818f590007003100e4
:100960002081800031818000803eb1000180b10093
:1009700020818800318188000400370000818000d8
:1009800011818000208188003181880020818000d1
:10099000318180000001be00001025007170200030
:1009a000ec01070000007800000fe9001e0078004d
:1009b0006101b80028d0bf000080fb008000eb0080
:1009c000809ab900828bb900860278000502420045
:1009d0000010b800010242008400780042062000a6
:1009e00003002000db0107001007980001eca900bc
:1009f0009e0078002160880041d0bf00e14f500088
:100a000003003a001e0390003661880002003700a0
:100a10009e0090003162880001eca80022818000d5
:100a2000338180000081800011818000800f51009f
:100a3000818f590002003600590307000400370077
:100a40004070ef0011e1a900010037000000000034
:100a50000080fa004f03be004f02be004f01be00ef
:100a60004f00be003600f900004006003600f800d6
:100a7000809fbe00829fbe00849fbe00869fbe00f6
:100a80000000fa000108a90013e1a9002108a9004b
:100a9000f0818000e40f500062003200e40f50004b
:100aa00007003e00e20f50001e003200e20f50002f
:100ab0004c003e00e10f50000a0032008900370070
:100ac000e60f500069003200e60f50007500390053
:100ad000e70f500033003200e80f500023003200cf
:100ae000800037001162800000c02000010070000b
:100af0001062880043eca80043cca800116280007b
:100b0000000c20000100700010628800432ca80037
:100b1000430ca80020002000f08188000b03070090
:100b20007200370011618000f03f2f0000806000ec
:100b30001061880023eca80023cca800232ca90076
:100b4000230ca90001eca80070002000f0818800af
:100b5000e201210012417800d0808000e180800015
:100b600025030700e40207006000370011628000df
:100b700000c02000010070001062880043eca80053
:100b800043cca80011628000f0f32f0000806000c9
:100b900010628800432ca800430ca8003e30ef00f0
:100ba000520037001161800000c020000100700079
:100bb0001061880023eca80023cca80011618000fc
:100bc000f0f32f000080600010618800232ca80043
:100bd000230ca80080002000f0818800db020700c1
:100be000420037001161800000c020000100700049
:100bf0001061880023eca80023cca80011618000bc
:100c0000000c20000100700010618800232ca80057
:100c1000230ca80040002000f0818800cb020700d0
:100c20003200370011628000f03f2f00008060002a
:100c30001062880043eca80043cca800432ca90014
:100c4000430ca90001eca80080002000f08188007e
:100c5000e201210012417800d0808000e180800014
:100c6000fa020700a402070020003700116180008b
:100c700000c02000010070001061880023eca80073
:100c800023cca80011618000f0f32f0000806000e9
:100c900010618800232ca800230ca8003e30ef0030
:100ca000120037001162800000c0200001007000b7
:100cb0001062880043eca80043cca80011628000b9
:100cc000f0f32f000080600010628800432ca80021
:100cd000430ca80060002000f08188009b02070000
:100ce000020037003e30ef00000000000080fa00f4
:100cf0004f03be004f02be004f01be004f00be00ba
:100d00003600f90000400600809fbe000000fa0097
:100d10000068a9003dd0bf00e14f50000c003a0030
:100d2000a07080004200de00614060000004a2006c
:100d3000614060000080fb00610060004200dd0057
:100d4000a17080000120a10001007000a070880047
:100d50000080fa004f00be00004006003600f80098
:100d6000809fbe00829fbe00849fbe00869fbe0003
:100d70000e00fa000168a9001011800062006000f6
:100d80000000e000010032002222a90030118000a2
:100d9000004f780007d0bf000004e0000c003a00cc
:100da000b0cab3009e40780080cf5000de003a0009
:100db0001e417800810021008248780010c0b300f5
:100dc00018f0b70010c0b30007f0b700d700370025
:100dd00018d0bf000081fb0081002100810041008c
:100de0009e4878000040e80018f0b70018d0bf0017
:100df000e24f500007003a00a0cab3009e407800be
:100e000080cf5000030032000770ef001870ef0031
:100e1000c600370018d0bf00e34f500003003a006f
:100e20009e40780094012100014a780018d0bf004c
:100e30008080fb0019d0bf000080fb0066004000ee
:100e4000808f5000b9003500d0ccb3009e407800b0
:100e500080cf5000030032000770ef001870ef00e1
:100e6000b200370019d0bf000080fb00e300400053
:100e70008000210000804000104078000080fb00ce
:100e8000c800dd0019d0bf000080fb0064014000f5
:100e90008000210000004100104078000080fb002d
:100ea000010070001007980019d0bf0000c0e800d2
:100eb00080407800900021008e04070020079800f1
:100ec000ae0090001e009000808f5000060032009f
:100ed0000770ef001870ef00108080000000e8003d
:100ee0001080880091003700b20021001241780084
:100ef000624798006e4090000080fb00e50f5000b4
:100f000038003200e50f500007003c00e30f5000ae
:100f10000f003200e30f500010003c00e10f5000c2
:100f2000080032007c003700f00f50006e003200e5
:100f3000f40f500072003200e60f500046003200fd
:100f40007500370010c0b30005f0b700720037001d
:100f500010c0b30004f0b7006f0037000cd0bf0022
:100f60000080fb00c800dd000dd0bf000080fb004a
:100f700001007000400798004e0090008000eb00d8
:100f8000823e20008289b900e002b9008401780025
:100f900003014100833e20000300b800010141002d
:100fa00082007800d0808800e18088000ed0bf00e9
:100fb0001ef0b7000fd0bf000080fb00c800dd00ae
:100fc00010d0bf000080fb0001007000008088008e
:100fd00010c0b30033f0b70010c0b30006f0b70084
:100fe0004d003700144ea900146ea90010c0b300c4
:100ff0003df0b7000cd0bf000080fb00c800dd0052
:101000000dd0bf000080fb00010070005007980069
:101010005e0090008000eb00823e20008289b900d3
:10102000e002b9008401780003014100833e200002
:101030000300b8000101410082007800d0808800e0
:10104000e18088000ed0bf001ef0b70010c0b300d2
:1010500031f0b70030003700144ea900146ea9001b
:1010600010c0b3003df0b7000cd0bf000080fb0003
:10107000c800dd000dd0bf000080fb000100700043
:10108000600798006e0090008000eb00823e200018
:101090008289b900e002b9008401780003014100af
:1010a000833e20000300b800010141008200780067
:1010b000d0808800e18088000ed0bf001ef0b7000d
:1010c0000fd0bf000080fb00c800dd0010d0bf00c3
:1010d0000080fb00010070000080880010c0b30099
:1010e00032f0b7000c00370010c0b3003df0b7007d
:1010f000144ea90010c0b30034f0b700060037004a
:101100003d70ef000670ef0001eca900144ea8003e
:10111000146ea900000000000770ef001870ef00c7
:101120001970ef0001003700000000000080fa0095
:101130004f03be004f02be004f01be004f00be0075
:101140003600f900004006000040da000000fe0012
:10115000000005006022b800060220000000d00058
:101160008180d2000482d2008582d2000000a000db
:101170000202520083825a00030031000202420040
:1011800083824a000000a1000603e900f3ff3a0051
:041190000000060055
:020000040000fa
:1011940000000000c0c10000c18100000140000047
:1011a400c301000003c0000002800000c24100002f
:1011b400c601000006c0000007800000c74100000f
:1011c40005000000c5c10000c48100000440000007
:1011d400cc0100000cc000000d800000cd410000d7
:1011e4000f000000cfc10000ce8100000e400000bf
:1011f4000a000000cac10000cb8100000b400000bf
:10120400c901000009c0000008800000c8410000b6
:10121400d801000018c0000019800000d941000066
:101224001b000000dbc10000da8100001a4000004e
:101234001e000000dec10000df8100001f4000002e
:10124400dd0100001dc000001c800000dc41000026
:1012540014000000d4c10000d58100001540000036
:10126400d701000017c0000016800000d64100001e
:10127400d201000012c0000013800000d34100001e
:1012840011000000d1c10000d08100001040000016
:10129400f001000030c0000031800000f141000086
:1012a40033000000f3c10000f2810000324000006e
:1012b40036000000f6c10000f7810000374000004e
:1012c400f501000035c0000034800000f441000046
:1012d4003c000000fcc10000fd8100003d40000016
:1012e400ff0100003fc000003e800000fe410000fe
:1012f400fa0100003ac000003b800000fb410000fe
:1013040039000000f9c10000f881000038400000f5
:1013140028000000e8c10000e98100002940000025
:10132400eb0100002bc000002a800000ea4100000d
:10133400ee0100002ec000002f800000ef410000ed
:101344002d000000edc10000ec8100002c400000e5
:10135400e401000024c0000025800000e5410000f5
:1013640027000000e7c10000e681000026400000dd
:1013740022000000e2c10000e381000023400000dd
:10138400e101000021c0000020800000e0410000d5
:10139400a001000060c0000061800000a1410000c5
:1013a40063000000a3c10000a281000062400000ad
:1013b40066000000a6c10000a7810000674000008d
:1013c400a501000065c0000064800000a441000085
:1013d4006c000000acc10000ad8100006d40000055
:1013e400af0100006fc000006e800000ae4100003d
:1013f400aa0100006ac000006b800000ab4100003d
:1014040069000000a9c10000a88100006840000034
:1014140078000000b8c10000b981000079400000e4
:10142400bb0100007bc000007a800000ba410000cc
:10143400be0100007ec000007f800000bf410000ac
:101444007d000000bdc10000bc8100007c400000a4
:10145400b401000074c0000075800000b5410000b4
:1014640077000000b7c10000b6810000764000009c
:1014740072000000b2c10000b3810000734000009c
:10148400b101000071c0000070800000b041000094
:101494005000000090c10000918100005140000004
:1014a4009301000053c000005280000092410000ec
:1014b4009601000056c000005780000097410000cc
:1014c4005500000095c100009481000054400000c4
:1014d4009c0100005cc000005d8000009d41000094
:1014e4005f0000009fc100009e8100005e4000007c
:1014f4005a0000009ac100009b8100005b4000007c
:101504009901000059c00000588000009841000073
:101514008801000048c000004980000089410000a3
:101524004b0000008bc100008a8100004a4000008b
:101534004e0000008ec100008f8100004f4000006b
:101544008d0100004dc000004c8000008c41000063
:101554004400000084c10000858100004540000073
:101564008701000047c0000046800000864100005b
:101574008201000042c0000043800000834100005b
:101584004100000081c10000808100004040000053
:020000040000fa
:101594000000fa0090022000303a8800213a8000ce
:1015a400f0f32f0000806000203a8800213a800088
:1015b40000fe2f0000806000203a88001200200006
:1015c40080072000a109200033742000804978009e
:1015d4008149780082497800103a8000000178003f
:1015e4000200a00060042000710520002374200084
:1015f4008049780081497800824978000000000021
:10160400113a800000002700808060000000210063
:10161400808f5000faff3a0000000000113a800069
:1016240000022000008060000000e000fbff3200a8
:1016340050c7a80051e7a8003feca9003fcca9007f
:10164400813a80000070200001007000803a880018
:1016540000000000813a8000000024000080600047
:101664000000e000fbff320051a7a8000080fa0050
:10167400000006000000fa0023eca90023cca90016
:1016840043eca90043cca900008ea900006ea90078
:1016940011aea90011cea9001e4ea900104ea9003a
:1016a400144ea8001e6ea900106ea900146ea900a5
:1016b4001e0ea900100ea8000080fa00000006000b
:1016c4000000fa0000c2b300a1e6b700c228a900d6
:1016d4000288a9005142800080ff2f000080600032
:1016e4006000b300504288002288a8000080fa00fd
:1016f400000006000000fa0013e1a9001221a9006d
:1017040012c1a900910880000003200001007000ac
:10171400900888000a21ef00905820007008880083
:101724000108a9002142800080ff2f000080600092
:101734006000b300204288002108a80013e1a8003b
:101744000080fa00000006000000fa0013e1a9007e
:101754001221a90012c1a90091088000f0fc2f00f9
:1017640000806000900888000a21ef0020ef21002b
:10177400700888000108a9002142800080ff2f0022
:10178400008060006000b300204288002108a800a7
:1017940013e1a8000080fa00000006000000fa002f
:1017a40011e1a9001021a90010c1a900810880003d
:1017b400f0fc2f0000806000800888000621ef0004
:1017c400803120006008880000e8a90011428000f0
:1017d400f0ff2800808060000000260001007000f7
:1017e4001042880020e8a80011e1a8000080fa0057
:1017f400000006000600fa00008fbe004247980071
:1018040010c0b30041f0b7001e0178009e019000a3
:10181400028188001381880000122a0071002000d0
:101824002081880031818800ce409000830221000d
:101834008149780010c0b30040f0b700d7ff07001b
:101844000080fa00000006000600fa00008fbe00c7
:101854004247980020c0b30041f0b7001e01780051
:101864009e019000028188001381880000122a00e2
:10187400710020002081880031818800ce409000d2
:10188400830221008149780010c0b30040f0b70002
:10189400c2ff07000080fa00000006000000fa0002
:1018a40001eca9001160800080ff2f00008060001f
:1018b40010608800a049200020608800206080001b
:1018c40040618800206080004062880020608000c1
:1018d4008000eb00220320008289b900e002b900f5
:1018e4008401780003014100230320000300b800b1
:1018f400010141008200780042062000030020001c
:1019040013fe07000000780030618800206080002a
:101914008000eb00220320008289b900e002b900b4
:101924008401780003014100230320000300b80070
:1019340001014100820078004206200003002000db
:1019440003fe070000007800306288002a2cef00b4
:101954004a2cef002c2cef002c2cef00206180008f
:101964003000b30020618800206280003000b300a2
:1019740020628800232ca900230ca900432ca90071
:10198400430ca90023eca80023cca80043eca80036
:1019940043cca80023aca900238ca90043aca90024
:1019a400438ca90011618000f03f2f00008060008b
:1019b4001061880011628000f03f2f0000806000f9
:1019c40010628800212ca900412ca900210ca80038
:1019d400410ca800206080008000eb00220320005e
:1019e4008289b900e002b900840178000301410052
:1019f400230320000300b8000101410082007800a5
:101a04004206200003002000d1fd070000007800fa
:101a14005060880001eca8000080fa000000060075
:101a24000a00fa002007980031079800024f980036
:101a34002e019000be01900000102500717020005e
:101a4400c3fd070000007800000fe9001e007800c5
:101a54006101b8000e4890000080fb008000eb009c
:101a6400809ab900828bb900860278000502420090
:101a74000010b800010242008400780042062000f1
:101a840003002000b2fd07001007980001eca90034
:101a9400206180003000b300206188002062800053
:101aa4003000b3002062880023eca80023cca800f7
:101ab40043eca80043cca800232ca900230ca900c4
:101ac400432ca900430ca90011628000f03f2f00b1
:101ad400008060001062880011618000f03f2f00d8
:101ae4000080600010618800210ca800410ca8004f
:101af400212ca900412ca9009e00780021608800b7
:101b0400282cef00482cef001e039000566088003c
:101b14009e009000316188001e03900036628800a8
:101b24008000200030608800016ca8000728a9000c
:101b34002728a800e1428000f0f82f000080600010
:101b44000060a000e042880001eca8000080fa00d8
:101b5400000006000c00fa002007980031079800e6
:101b6400024f98005307980001eca900007520006b
:101b7400000f78001e0078006101b8000e48900044
:101b84000080fb008000eb00809ab900828bb900d2
:101b940086027800050242000010b80001024200eb
:101ba40084007800420620000300200068fd07003e
:101bb400100798009e007800216088001e039000a2
:101bc400366188009e0090003162880023eca800f2
:101bd40023cca80011618000f03f2f00008060003a
:101be40010618800206180003000b300206188000b
:101bf4005e03900056618800de00900061618800f9
:101c040011628000f03f2f000080600010628800a5
:101c140043eca80043cca800432ca900430ca90022
:101c240011628000f0f32f000080600010628800d1
:101c3400206280003000b300206288005e039000c0
:101c440056628800de0090006162880080002000f7
:101c540030608800016ca8000728a9002728a80084
:101c6400e1428000f0f82f00008060000060a000d6
:101c7400e042880001eca9000080fa0000000600a0
:101c84000c00fa002007980031079800024f9800d2
:101c94005307980001eca9002e019000be019000aa
:101ca400001025007170200029fd070080007800d5
:101cb400f0ff2100008040004300dd00000f7800a9
:101cc4001e0078006101b8000e4890000080fb00ff
:101cd4008000eb00809ab900828bb90086027800fc
:101ce400050242000010b80001024200840078009e
:101cf400420620000300200015fd0700100798008d
:101d04009e007800216088001e03900036618800e0
:101d1400232ca900230ca90023eca80023cca800a1
:101d240011618000f03f2f00008060001061880086
:101d3400206180003000b30020618800de00900044
:101d4400516188005e039000666188001162800022
:101d540000c02000010070001062880043eca8005d
:101d640043cca80011628000000c20000100700028
:101d740010628800432ca800430ca8002062800055
:101d84003000b300206288008000200030608800aa
:101d9400016ca8000728a9002728a800e1428000b8
:101da400f0f82f00008060000060a000e04288008e
:101db40001eca8000080fa00000006000000fa0010
:101dc40005e1a9000421a9002108800000032000e6
:101dd40001007000200888000021ef00a08e2b0075
:101de400100888000068a9002068a800014280004b
:101df400f0ff2800808060000000230001007000d4
:101e04000042880005e1a8000080fa0000000600f6
:101e14000200fa00004f7800152ea8000000000010
:101e24001111800000202000008060000000e0000c
:101e3400fbff3a00a00a200020118800d0ab290043
:101e44000100200027010700152ea9000080fa00d8
:101e5400000006000000fa0060a7a90011eea80027
:101e6400110ea900112ea900152ea90042c7a90020
:101e7400f0c2b300c4e6b700c133800000fc2f00f9
:101e8400008060000000a000c033880042c7a800a2
:101e94002002a9000111800090ff2f000080600043
:101ea400001188002062a90020a2a90023a2a90091
:101eb40023e2a90000102000401188000188a90035
:101ec4002188a9000168a9002168a8002142800096
:101ed400f0ff2800808060000000250001007000f1
:101ee4002042880011118000f0f32f000080600070
:101ef4001011880021e2a8002342a8000080fa0003
:101f0400000006000e00fa00404f9800b0cab3006b
:101f140040479800a0cab3005047980020c0b300bf
:101f24006047980030c2b30070479800ce489000d4
:101f3400014f9800640047000000e80041c0b3006e
:101f44006b000700100798001e0090004800de0098
:101f540000407800104f98001e0090000040780068
:101f6400204f9800d0ccb300304f9800152ea80015
:101f7400c018200001002000da0007000040eb0038
:101f8400004f78000c0037000000000011118000a1
:101f940000202000008060000000e000fbff3a0009
:101fa4001e80fb00640040006e4078000080fb004f
:101fb400201188001e4fe8001e407800e74f5000b3
:101fc400f1ff360000000000111180000010200015
:101fd400008060000000e000fbff3200c018200019
:101fe40001002000bf000700152ea9000080fa00a0
:101ff400000006000e00fa00b0cab3004047980083
:10200400a0cab3005047980040c0b300604798008e
:1020140010c2b3007047980010c0b300004f98007e
:102024000040eb00104f980010c0b300204f980000
:10203400640047000000e80061c0b3002c00070002
:10204400100798001e0090004800de000040780051
:10205400304f98001e00900000407800404f9800d8
:10206400d0ccb300504f9800152ea800c018200003
:10207400010020009b0007000040eb00004f7800a7
:102084000c00370000000000111180000020200027
:10209400008060000000e000fbff3a001e80fb00af
:1020a400640040006e4078000080fb00201188002e
:1020b4001e4fe8001e407800e94f5000f1ff360043
:1020c400000000001111800000102000008060005a
:1020d4000000e000fbff3200c018200001002000d7
:1020e40080000700152ea9000080fa0000000600f9
:1020f4000800fa0020079800614798000080eb0070
:10210400000f7800140037002e0090001040780073
:102114000080fb009e006800f00f2000008060003b
:1021240080004000a08c28000080400090007800cf
:10213400110798002e0090000000e8002007980086
:102144001e009000c800dd001e0090001e00680004
:102154004800de00008f40006e4090008080fb004d
:102164008100ea00cf08de00814078000040e900e9
:10217400604798000104e000e3ff3a001e00780085
:102184000080fa00000006000200fa0040a7a9003f
:10219400003a8000000f78004027ef00fcfc0700a5
:1021a40034fd070046fd07002aff070003ff070070
:1021b40001003700000000000060fe001080800075
:1021c400ea0f50000400360001eca9000230ef00d1
:1021d40010c0b30036f0b70005d0bf000004e00023
:1021e4000200320083ff07000570ef0031d0bf000a
:1021f400e14f500006003a00e2012100124178004c
:10220400d0808000e180800005fe07003170ef007f
:1022140004d0bf00e14f500003003a0036d0bf00a5
:1022240038ff07000470ef0032d0bf00e14f5000c8
:1022340007003a0003808000e20121001241780087
:10224400d0808000e18080008dfe07003270ef00b6
:1022540033d0bf00e14f500007003a0003808000f4
:10226400e201210012417800d0808000e1808000ea
:1022740038fe07003370ef0006d0bf0035d0bf0032
:10228400e14f5000cbff3a003570ef00caff370032
:020000040000fa
:102294004410000002000000800000001a1000003a
:1022a4001600000082000000a08601000032000039
:1022b400a08601000020a1000700320000a08600d3
:1022c4000100320000000000301000001400000083
:1022d40080000000001000001a00000080000000d0
:0422e40000000000f6
:020000040000fa
:1022e800f03fb1000180b10006003500ee0309009f
:1022f80000000000403fb1000180b100fbff3d003d
:102308001000b000203fb000020035000080090036
:082318000000000000000600b7
:020000040000fa
:04af0000ffffff0050
:020000040000fa
:04af2000ff1f00000f
:020000040000fa
:04af3000f9ffff0026
:020000040000fa
:04af38005bffff00bc
:020000040000fa
:04af40009cffff0073
:020000040000fa
:04af5000dfffff0020
:020000040000fa
:04af5800feffff00f9
:020000040000fa
:04af6000ffffff00f0
:00000001FF
