:020000040000fa
:080000000002040000000000f2
:020000040000fa
:04000800c40500002b
:020000040000fa
:04000c00c405000027
:020000040000fa
:04001000c405000023
:020000040000fa
:04001400c40500001f
:020000040000fa
:04001800c40500001b
:020000040000fa
:04001c00c405000017
:020000040000fa
:04002000c405000013
:020000040000fa
:04002400c40500000f
:020000040000fa
:04002800c40500000b
:020000040000fa
:04002c00c405000007
:020000040000fa
:04003000c405000003
:020000040000fa
:04003400d6030000ef
:020000040000fa
:04003800c4050000fb
:020000040000fa
:04003c00c4050000f7
:020000040000fa
:04004000c4050000f3
:020000040000fa
:04004400c4050000ef
:020000040000fa
:04004800c4050000eb
:020000040000fa
:04004c00c4050000e7
:020000040000fa
:04005000c4050000e3
:020000040000fa
:0400540000040000a4
:020000040000fa
:04005800c4050000db
:020000040000fa
:04005c00c4050000d7
:020000040000fa
:04006000c4050000d3
:020000040000fa
:04006400c4050000cf
:020000040000fa
:04006800c4050000cb
:020000040000fa
:04006c00c4050000c7
:020000040000fa
:04007000c4050000c3
:020000040000fa
:04007400c4050000bf
:020000040000fa
:04007800c4050000bb
:020000040000fa
:04007c00c4050000b7
:020000040000fa
:04008000c4050000b3
:020000040000fa
:04008400c4050000af
:020000040000fa
:04008800c4050000ab
:020000040000fa
:04008c00c4050000a7
:020000040000fa
:04009000c4050000a3
:020000040000fa
:04009400c40500009f
:020000040000fa
:04009800c40500009b
:020000040000fa
:04009c00c405000097
:020000040000fa
:0400a000c405000093
:020000040000fa
:0400a400c40500008f
:020000040000fa
:0400a800c40500008b
:020000040000fa
:0400ac00c405000087
:020000040000fa
:0400b000c405000083
:020000040000fa
:0400b400c40500007f
:020000040000fa
:0400b800c40500007b
:020000040000fa
:0400bc00c405000077
:020000040000fa
:0400c000c405000073
:020000040000fa
:0400c400c40500006f
:020000040000fa
:0400c800c40500006b
:020000040000fa
:0400cc00c405000067
:020000040000fa
:0400d000c405000063
:020000040000fa
:0400d400c40500005f
:020000040000fa
:0400d800c40500005b
:020000040000fa
:0400dc00c405000057
:020000040000fa
:0400e000c405000053
:020000040000fa
:0400e400c40500004f
:020000040000fa
:0400e800c40500004b
:020000040000fa
:0400ec00c405000047
:020000040000fa
:0400f000c405000043
:020000040000fa
:0400f400c40500003f
:020000040000fa
:0400f800c40500003b
:020000040000fa
:0400fc00c405000037
:020000040000fa
:04010000c405000032
:020000040000fa
:04010400c40500002e
:020000040000fa
:04010800c40500002a
:020000040000fa
:04010c00fa020000f3
:020000040000fa
:04011000c405000022
:020000040000fa
:04011400c40500001e
:020000040000fa
:04011800c40500001a
:020000040000fa
:04011c00c405000016
:020000040000fa
:04012000c405000012
:020000040000fa
:04012400c40500000e
:020000040000fa
:04012800c40500000a
:020000040000fa
:04012c00c405000006
:020000040000fa
:04013000c405000002
:020000040000fa
:04013400c4050000fe
:020000040000fa
:04013800c4050000fa
:020000040000fa
:04013c00c4050000f6
:020000040000fa
:04014000c4050000f2
:020000040000fa
:04014400c4050000ee
:020000040000fa
:04014800c4050000ea
:020000040000fa
:04014c00c4050000e6
:020000040000fa
:04015000c4050000e2
:020000040000fa
:04015400c4050000de
:020000040000fa
:04015800c4050000da
:020000040000fa
:04015c00c4050000d6
:020000040000fa
:04016000c4050000d2
:020000040000fa
:04016400c4050000ce
:020000040000fa
:04016800c4050000ca
:020000040000fa
:04016c00c4050000c6
:020000040000fa
:04017000c4050000c2
:020000040000fa
:04017400c4050000be
:020000040000fa
:04017800c4050000ba
:020000040000fa
:04017c00c4050000b6
:020000040000fa
:04018000c4050000b2
:020000040000fa
:04018400c4050000ae
:020000040000fa
:04018800c4050000aa
:020000040000fa
:04018c00c4050000a6
:020000040000fa
:04019000c4050000a2
:020000040000fa
:04019400c40500009e
:020000040000fa
:04019800c40500009a
:020000040000fa
:04019c00c405000096
:020000040000fa
:0401a000c405000092
:020000040000fa
:0401a400c40500008e
:020000040000fa
:0401a800c40500008a
:020000040000fa
:0401ac00c405000086
:020000040000fa
:0401b000c405000082
:020000040000fa
:0401b400c40500007e
:020000040000fa
:0401b800c40500007a
:020000040000fa
:0401bc00c405000076
:020000040000fa
:0401c000c405000072
:020000040000fa
:0401c400c40500006e
:020000040000fa
:0401c800c40500006a
:020000040000fa
:0401cc00c405000066
:020000040000fa
:0401d000c405000062
:020000040000fa
:0401d400c40500005e
:020000040000fa
:0401d800c40500005a
:020000040000fa
:0401dc00c405000056
:020000040000fa
:0401e000c405000052
:020000040000fa
:0401e400c40500004e
:020000040000fa
:0401e800c40500004a
:020000040000fa
:0401ec00c405000046
:020000040000fa
:0401f000c405000042
:020000040000fa
:0401f400c40500003e
:020000040000fa
:0401f800c40500003a
:020000040000fa
:0401fc00c405000036
:020000040000fa
:04020000c405000031
:020000040000fa
:04020400c40500002d
:020000040000fa
:04020800c405000029
:020000040000fa
:04020c00c405000025
:020000040000fa
:04021000c405000021
:020000040000fa
:04021400c40500001d
:020000040000fa
:04021800c405000019
:020000040000fa
:04021c00c405000015
:020000040000fa
:04022000c405000011
:020000040000fa
:04022400c40500000d
:020000040000fa
:04022800c405000009
:020000040000fa
:04022c00c405000005
:020000040000fa
:04023000c405000001
:020000040000fa
:04023400c4050000fd
:020000040000fa
:04023800c4050000f9
:020000040000fa
:04023c00c4050000f5
:020000040000fa
:04024000c4050000f1
:020000040000fa
:04024400c4050000ed
:020000040000fa
:04024800c4050000e9
:020000040000fa
:04024c00c4050000e5
:020000040000fa
:04025000c4050000e1
:020000040000fa
:04025400c4050000dd
:020000040000fa
:04025800c4050000d9
:020000040000fa
:04025c00c4050000d5
:020000040000fa
:04026000c4050000d1
:020000040000fa
:04026400c4050000cd
:020000040000fa
:04026800c4050000c9
:020000040000fa
:04026c00c4050000c5
:020000040000fa
:04027000c4050000c1
:020000040000fa
:04027400c4050000bd
:020000040000fa
:04027800c4050000b9
:020000040000fa
:04027c00c4050000b5
:020000040000fa
:04028000c4050000b1
:020000040000fa
:04028400c4050000ad
:020000040000fa
:04028800c4050000a9
:020000040000fa
:04028c00c4050000a5
:020000040000fa
:04029000c4050000a1
:020000040000fa
:04029400c40500009d
:020000040000fa
:04029800c405000099
:020000040000fa
:04029c00c405000095
:020000040000fa
:0402a000c405000091
:020000040000fa
:0402a400c40500008d
:020000040000fa
:0402a800c405000089
:020000040000fa
:0402ac00c405000085
:020000040000fa
:0402b000c405000081
:020000040000fa
:0402b400c40500007d
:020000040000fa
:0402b800c405000079
:020000040000fa
:0402bc00c405000075
:020000040000fa
:0402c000c405000071
:020000040000fa
:0402c400c40500006d
:020000040000fa
:0402c800c405000069
:020000040000fa
:0402cc00c405000065
:020000040000fa
:0402d000c405000061
:020000040000fa
:0402d400c40500005d
:020000040000fa
:0402d800c405000059
:020000040000fa
:0402dc00c405000055
:020000040000fa
:0402e000c405000051
:020000040000fa
:0402e400c40500004d
:020000040000fa
:0402e800c405000049
:020000040000fa
:0402ec00c405000045
:020000040000fa
:0402f000c405000041
:020000040000fa
:0402f400c40500003d
:020000040000fa
:0402f800c405000039
:020000040000fa
:100400006f0321000eff21000e0188000000000094
:10041000000020000000e000020032000001200087
:100420002002880014000700d90107000000e00046
:1004300003003a00c0d02000010020000200370075
:100440000000200001002000810f70000100320038
:100450000f000700000020000000e0000200320052
:100460000000020000000000a00c020000000000dc
:100470000040da000000fe00002020000000e00044
:1004800002003200002020009001880000000600d9
:10049000a1028800800478000000eb001f003700f4
:1004a000e284440054a0b4009905ba00e2844400f8
:1004b00054a0b4009906ba00e284440054a0b400e9
:1004c0000006eb00476fde00fd07b200ae018800ba
:1004d000636ce10003003a000ad801000000eb0061
:1004e0000e003700606ce10008003a00004deb00a0
:1004f0000a05e800020039003420ec000af0a000f0
:100500008b05e900f9ff3e00040037006168e10057
:10051000010032000086eb000b00070019c7ba008b
:100520000e04e0001905ba0003003a000a00e000da
:10053000dbff3a0000000600fe07b200ae028800b2
:100540008a047800f5ff37000cd0a300e20f4d00bd
:100550001c003b0089027800354dba000a05e8000e
:10056000020039003420ec000af0a0008b05e900fd
:100570000f003200254dba000a05e80002003900dc
:100580003420ec000af0a0008b05e90008003200de
:100590000c00e0000600320015cdba000a05e800a4
:1005a000020039003420ec000af0a0008b05e900bd
:1005b0008984e80054a0b4000b00e000e2ff3a0098
:1005c000000006009902ba00055d78008b05e9007d
:1005d000f7ff3200c82ade00055d78008b05e900d0
:1005e000f3ff32000c00e000f1ff320019ddba0029
:1005f000eeff37003600f800809fbe00829fbe00ed
:10060000849fbe00869fbe000800fa000728a9004c
:1006100026d0bf000080fb000000e0000300320095
:10062000e10f50002d003200590037001dd0bf00ef
:10063000e14f500055003a001d70ef0040818000ee
:100640005181800000818800118188002cd0bf007a
:1006500024f0b700200ca90050932000000f780070
:100660001e0078006101b80024d0bf000080fb00ac
:100670008000eb00809ab900828bb9008602780076
:10068000050242000010b800010242008400780018
:1006900042062000030020003e01070010079800da
:1006a000146ea8009e007800216088001e03900050
:1006b000566088009e009000316188001e03900003
:1006c000366288009e0078006880500030608800a4
:1006d00010c0b30026f0b7002d003700200ca90091
:1006e000146ea80000818000118180000001be000e
:1006f000001025007170200026010700000078001e
:100700000000e900200798002e0090006101b80069
:1007100024d0bf000080fb008000eb00809ab9006d
:10072000828bb90086027800050242000010b800f2
:1007300001024200840078004206200003002000ed
:100740001401070030079800ae0090002160880077
:100750003e03900056608800be0090003161880022
:100760003e039000366288002e0090006800500022
:1007700030608800146ea90010c0b3001ef0b700ee
:100780002670ef00000000000100370000000000ac
:100790000080fa004f03be004f02be004f01be00b2
:1007a0004f00be003600f90000400600809fbe00ea
:1007b0000000fa000068a90025d0bf00e14f5000fa
:1007c0000c003a00a07080004200de006140600032
:1007d0000004a200614060000080fb006100600036
:1007e0004200dd00a17080000120a1000100700026
:1007f000a07088000080fa004f00be000040060094
:100800003600f800809fbe00829fbe00849fbe001d
:10081000869fbe000c00fa000168a900101180003c
:10082000620060000000e000010032002222a90006
:1008300030118000004f780006d0bf000004e000b7
:100840000c003a00b0cab3009e40780080cf500040
:10085000c5003a001e4178007100210082487800ee
:1008600010c0b30017f0b70010c0b30006f0b70017
:10087000be00370017d0bf000081fb0071002100cf
:10088000810041009e4878000040e80017f0b70062
:1008900017d0bf00e24f500007003a00a0cab300d3
:1008a0009e40780080cf5000030032000670ef00b9
:1008b0001770ef00ad00370017d0bf00e34f5000b6
:1008c00003003a009e40780084012100014a78002c
:1008d00017d0bf008080fb0018d0bf000080fb0055
:1008e00066004000808f5000a0003500d0ccb300df
:1008f0009e40780080cf5000030032000670ef0069
:100900001770ef009900370018d0bf000080fb007f
:10091000e30040007000210000804000104078009b
:100920000080fb00c800dd0018d0bf000080fb0085
:100930006401400070002100000041001040780078
:100940000080fb00010070001007980018d0bf0065
:1009500000c0e8008040780080002100d20307003a
:1009600020079800ae0090001e009000808f50007d
:10097000060032000670ef001770ef001080800054
:100980000000e8001080880078003700a2002100f5
:1009900012417800624798006e4090000080fb0092
:1009a000e50f500016003200e50f500007003c0034
:1009b000e30f50000f003200e30f500065003c00d1
:1009c000e10f50000800320063003700f00f5000c4
:1009d0004c003200f40f500050003200e60f50007f
:1009e000240032005c00370010c0b30005f0b700ef
:1009f0005900370010c0b30004f0b70056003700ac
:100a0000144ea900146ea90010c0b30025f0b70061
:100a10000bd0bf000080fb00c800dd000cd0bf0081
:100a20000080fb0001007000400798004e0090001d
:100a30008000eb00823e20008289b900e002b9000c
:100a40008401780003014100833e20000300b800c8
:100a500001014100820078004081880051818800b6
:100a60000dd0bf002cf0b70010c0b3001bf0b700d2
:100a700039003700144ea900146ea90010c0b3004d
:100a800025f0b7000bd0bf000080fb00c800dd00e0
:100a90000cd0bf000080fb000100700050079800e0
:100aa0005e0090008000eb00823e20008289b90049
:100ab000e002b9008401780003014100833e200078
:100ac0000300b800010141008200780040818800e5
:100ad000518188000dd0bf002cf0b7000ed0bf00b0
:100ae0000080fb00c800dd000fd0bf000080fb00cd
:100af000010070000080880010c0b3001cf0b70037
:100b00001500370010c0b30025f0b700144ea9003f
:100b100010c0b3001df0b7000f0037002570ef00c4
:100b200001eca900144ea9001b70ef001c70ef002f
:100b30001d70ef000470ef000570ef0090b620000c
:100b400061002000c5030700146ea8000000fe002d
:100b500001003700000000000670ef001770ef0082
:100b60001870ef0001003700000000000080fa005c
:100b70004f03be004f02be004f01be004f00be003b
:100b80003600f900004006000040da000000fe00d8
:100b9000000005006022b800060220000000d0001e
:100ba0008180d2000482d2008582d2000000a000a1
:100bb0000202520083825a00030031000202420006
:100bc00083824a000000a1000603e900f3ff3a0017
:040bd000000006001b
:020000040000fa
:100bd40000000000c0c10000c1810000014000000d
:100be400c301000003c0000002800000c2410000f5
:100bf400c601000006c0000007800000c7410000d5
:100c040005000000c5c10000c481000004400000cc
:100c1400cc0100000cc000000d800000cd4100009c
:100c24000f000000cfc10000ce8100000e40000084
:100c34000a000000cac10000cb8100000b40000084
:100c4400c901000009c0000008800000c84100007c
:100c5400d801000018c0000019800000d94100002c
:100c64001b000000dbc10000da8100001a40000014
:100c74001e000000dec10000df8100001f400000f4
:100c8400dd0100001dc000001c800000dc410000ec
:100c940014000000d4c10000d581000015400000fc
:100ca400d701000017c0000016800000d6410000e4
:100cb400d201000012c0000013800000d3410000e4
:100cc40011000000d1c10000d081000010400000dc
:100cd400f001000030c0000031800000f14100004c
:100ce40033000000f3c10000f28100003240000034
:100cf40036000000f6c10000f78100003740000014
:100d0400f501000035c0000034800000f44100000b
:100d14003c000000fcc10000fd8100003d400000db
:100d2400ff0100003fc000003e800000fe410000c3
:100d3400fa0100003ac000003b800000fb410000c3
:100d440039000000f9c10000f881000038400000bb
:100d540028000000e8c10000e981000029400000eb
:100d6400eb0100002bc000002a800000ea410000d3
:100d7400ee0100002ec000002f800000ef410000b3
:100d84002d000000edc10000ec8100002c400000ab
:100d9400e401000024c0000025800000e5410000bb
:100da40027000000e7c10000e681000026400000a3
:100db40022000000e2c10000e381000023400000a3
:100dc400e101000021c0000020800000e04100009b
:100dd400a001000060c0000061800000a14100008b
:100de40063000000a3c10000a28100006240000073
:100df40066000000a6c10000a78100006740000053
:100e0400a501000065c0000064800000a44100004a
:100e14006c000000acc10000ad8100006d4000001a
:100e2400af0100006fc000006e800000ae41000002
:100e3400aa0100006ac000006b800000ab41000002
:100e440069000000a9c10000a881000068400000fa
:100e540078000000b8c10000b981000079400000aa
:100e6400bb0100007bc000007a800000ba41000092
:100e7400be0100007ec000007f800000bf41000072
:100e84007d000000bdc10000bc8100007c4000006a
:100e9400b401000074c0000075800000b54100007a
:100ea40077000000b7c10000b68100007640000062
:100eb40072000000b2c10000b38100007340000062
:100ec400b101000071c0000070800000b04100005a
:100ed4005000000090c100009181000051400000ca
:100ee4009301000053c000005280000092410000b2
:100ef4009601000056c00000578000009741000092
:100f04005500000095c10000948100005440000089
:100f14009c0100005cc000005d8000009d41000059
:100f24005f0000009fc100009e8100005e40000041
:100f34005a0000009ac100009b8100005b40000041
:100f44009901000059c00000588000009841000039
:100f54008801000048c00000498000008941000069
:100f64004b0000008bc100008a8100004a40000051
:100f74004e0000008ec100008f8100004f40000031
:100f84008d0100004dc000004c8000008c41000029
:100f94004400000084c10000858100004540000039
:100fa4008701000047c00000468000008641000021
:100fb4008201000042c00000438000008341000021
:100fc4004100000081c10000808100004040000019
:020000040000fa
:100fd4000000fa0090022000303a8800213a800094
:100fe400f0f32f0000806000203a8800213a80004e
:100ff40000fe2f0000806000203a880012002000cc
:1010040080072000a1092000337420008049780063
:101014008149780082497800103a80000001780004
:101024000200a00060042000710520002374200049
:1010340080497800814978008249780000000000e6
:10104400113a800000002700808060000000210029
:10105400808f5000faff3a0000000000113a80002f
:1010640000022000008060000000e000fbff32006e
:1010740050c7a80051e7a800813a8000f08f2f00e4
:101084000080600000a0a000803a880000000000fa
:10109400813a800000002400008060000000e0002d
:1010a400fbff320051a7a8000080fa0000000600f0
:1010b4000000fa0023eca90023cca90043eca9000a
:1010c40043cca900008ea900006ea90011aea900ae
:1010d40011cea9001e4ea900104ea900144ea8005e
:1010e4001e6ea900106ea900146ea9000080fa00fb
:1010f400000006000000fa0001eca9001160800065
:1011040080ff2f000080600010608800a04920004c
:10111400206088002060800040618800206080009a
:1011240040628800206080008000eb0022032000e1
:101134008289b900e002b90084017800030141000a
:10114400230320000300b80001014100820078005d
:1011540042062000030020008dfe070000007800f6
:1011640030618800206080008000eb0022032000b2
:101174008289b900e002b9008401780003014100ca
:10118400230320000300b80001014100820078001d
:1011940042062000030020007dfe070000007800c6
:1011a400306288002a2cef004a2cef002c2cef0030
:1011b4002c2cef00206180003000b30020618800f7
:1011c400206280003000b30020628800232ca90034
:1011d400230ca900432ca900430ca90023eca8006c
:1011e40023cca80043eca80043cca80023aca9005e
:1011f400238ca90043aca900438ca9001161800091
:10120400f03f2f00008060001061880011628000b0
:10121400f03f2f000080600010628800212ca9009c
:10122400412ca900210ca800410ca80020608000da
:101234008000eb00220320008289b900e002b9009b
:101244008401780003014100230320000300b80057
:1012540001014100820078004206200003002000c2
:101264004bfe0700000078005060880001eca800e5
:101274000080fa00000006000a00fa002007980027
:1012840031079800024f98002e019000be01900093
:1012940000102500717020003dfe0700000078005a
:1012a400000fe9001e0078006101b8000e489000ac
:1012b4000080fb008000eb00809ab900828bb900ab
:1012c40086027800050242000010b80001024200c4
:1012d4008400780042062000030020002cfe070052
:1012e4001007980001eca900206180003000b300d1
:1012f40020618800206280003000b30020628800f2
:1013040023eca80023cca80043eca80043cca800fd
:10131400232ca900230ca900432ca900430ca900e9
:1013240011628000f03f2f0000806000106288008e
:1013340011618000f03f2f00008060001061880080
:10134400210ca800410ca800212ca900412ca900c3
:101354009e007800216088001e03780046618800a2
:101364009e007800416288001e0390005660880049
:101374009e009000316188001e0390003662880050
:101384008000200030608800016ca8000728a900b4
:101394002728a800e1428000f0f82f0000806000b8
:1013a4000060a000e042880001eca8000080fa0080
:1013b400000006000e00fa0030079800410798006c
:1013c400224f98006307980001eca9003e019000a9
:1013d400ce0190000010250071702000ecfd070084
:1013e400000078000000e900100798001e0090003b
:1013f4006101b8002e4890000080fb008000eb00e3
:10140400809ab900828bb9008602780005024200f6
:101414000010b80001024200840078004206200057
:1014240003002000dafd0700200798009e009000ca
:10143400216088001e029000446188002e03900001
:1014440036618800ae00900051608800232ca9000a
:10145400230ca90023eca80023cca8002061800061
:101464003000b3002061880011618000f03f2f003c
:1014740000806000106188006e0090008000eb0026
:10148400620720008289b900e002b9008401780073
:1014940003014100630720000300b800010141007b
:1014a40082007800823e200003002000b8fd07007f
:1014b400000f7800b00320009e007800808f500059
:1014c40002003600b0032000000f780001618000a4
:1014d400f0f32f000080600000618800200ca90058
:1014e4001e037800566188009e00780061618800c0
:1014f4004a2cef004c2cef00210ca800212ca90051
:101504001162800000c02000010070001062880099
:1015140043eca80043cca80011628000000c20001a
:101524000100700010628800432ca800430ca8003e
:10153400206280003000b300206288008000200018
:1015440030608800016ca8000728a9002728a8009b
:10155400e1428000f0f82f00008060000060a000ed
:10156400e042880001eca8000080fa0000000600b8
:101574000000fa0005e1a9000421a9002108800067
:101584000003200001007000200888000021ef0003
:10159400a08e2b00100888000068a9002068a8000d
:1015a40001428000f0ff28008080600000002300da
:1015b400010070000042880005e1a8000080fa00e4
:1015c400000006000200fa00004f7800152ea80063
:1015d4000000000011118000002020000080600045
:1015e4000000e000fbff3a00a00a20002011880060
:1015f400d0ab29000100200017010700152ea90017
:101604000080fa00000006000000fa0060a7a900ac
:1016140011eea800110ea900112ea900152ea90083
:1016240042c7a900f0c2b300c4e6b700c1338000ca
:1016340000fc2f00008060000000a000c033880080
:1016440042c7a8002002a9000111800090ff2f00ca
:1016540000806000001188002062a90020a2a90077
:1016640023a2a90023e2a900001020004011880051
:101674000188a9002188a9000168a9002168a8009f
:1016840021428000f0ff28008080600000002500d7
:10169400010070002042880011118000f0f32f0037
:1016a400008060001011880021e2a8002342a800f5
:1016b4000080fa00000006000e00fa00404f980077
:1016c400b0cab30040479800a0cab300504798007e
:1016d40020c0b3006047980030c2b3007047980040
:1016e400ce489000014f9800640047000000e800d5
:1016f40041c0b3006b000700100798001e00900063
:101704004800de0000407800104f98001e00900052
:1017140000407800204f9800d0ccb300304f9800a0
:10172400152ea800c018200001002000ca000700e0
:101734000040eb00004f78000c0037000000000070
:101744001111800000202000008060000000e000f3
:10175400fbff3a001e80fb00640040006e407800ee
:101764000080fb00201188001e4fe8001e40780016
:10177400e74f5000f1ff3600000000001111800017
:1017840000102000008060000000e000fbff320039
:10179400c018200001002000af000700152ea9008a
:1017a4000080fa00000006000e00fa00b0cab30080
:1017b40040479800a0cab3005047980040c0b30007
:1017c4006047980010c2b3007047980010c0b3007f
:1017d400004f98000040eb00104f98000040eb00d1
:1017e400204f9800640047000000e80061c0b30087
:1017f4002c000700100798001e0090004800de002f
:1018040000407800304f98001e009000004078009f
:10181400404f9800d0ccb300504f9800152ea8002c
:10182400c0182000010020008b0007000040eb00de
:10183400004f78000c0037000000000011118000f8
:1018440000202000008060000000e000fbff3a0060
:101854001e80fb00640040006e4078000080fb00a6
:10186400201188001e4fe8001e407800e94f500008
:10187400f1ff36000000000011118000001020006c
:10188400008060000000e000fbff3200c018200070
:101894000100200070000700152ea9000080fa0046
:1018a400000006000800fa0020079800614798002d
:1018b4000080eb00000f7800140037002e00900029
:1018c400104078000080fb009e006800f00f2000ac
:1018d4000080600080004000a05e2800008040007e
:1018e40090007800110798002e0090000000e80096
:1018f400200798001e009000c800dd001e00900024
:101904001e0068004800de00008f40006e4090001a
:101914008080fb008100ea00cf08de00814078006f
:101924000040e900604798000104e000e3ff3a004a
:101934001e0078000080fa00000006000200fa0091
:1019440040a7a900003a8000000f78004027ef006c
:101954009ffd0700d6fd07002bff070004ff0700cb
:1019640001003700000000000060fe0010808000cd
:10197400ea0f50000400360001eca9000230ef0029
:1019840010c0b3001ff0b70005d0bf000004e00092
:101994000200320084ff07000570ef001bd0bf0077
:1019a400e14f500006003a00c202210012417800c3
:1019b40040818000518180002ffe07001b70ef00e2
:1019c40004d0bf00e14f500003003a001fd0bf0015
:1019d40039ff07000470ef001cd0bf00e14f500036
:1019e40007003a0003808000c202210012417800ff
:1019f40040818000518180006efe07001c70ef0062
:101a04001ed0bf00e14f5000d6ff3a001e70ef0019
:041a1400d5ff3700c3
:020000040000fa
:101a180034100000020000008000000028100000c0
:101a28000c00000082000000a086010000320000c7
:101a3800a0860100003200001a1000000e0000000d
:101a480080000000001000001a0000008000000064
:041a5800000000008a
:020000040000fa
:101a5c00f03fb1000180b10006003500ee03090033
:101a6c0000000000403fb1000180b100fbff3d00d1
:101a7c001000b000203fb0000200350000800900cb
:081a8c0000000000000006004c
:020000040000fa
:04af0000ffffff0050
:020000040000fa
:04af2000ff1f00000f
:020000040000fa
:04af3000f9ffff0026
:020000040000fa
:04af38005bffff00bc
:020000040000fa
:04af40009cffff0073
:020000040000fa
:04af5000dfffff0020
:020000040000fa
:04af5800feffff00f9
:020000040000fa
:04af6000ffffff00f0
:00000001FF
